:020000040000FA
:10000000982500204D010000313400005701000008
:1000100000000000000000000000000000000000E0
:100020000000000000000000000000005F01000070
:1000300000000000000000006301000075270000C0
:1000400067010000690100006B0100006D01000004
:100050006F010000710100007301000075010000D4
:1000600077010000790100007B0100007D010000A4
:100070007F01000081010000830100008501000074
:1000800087010000890100008B0100008D01000044
:100090008F01000091010000930100009501000014
:1000A00097010000990100009B0100009D010000E4
:1000B0005132000039130000A3010000A501000027
:1000C000EFFFE8FF00F002F800F030F80CA030C8B5
:1000D000083824182D18A246671EAB4654465D46C4
:1000E000AC4201D100F022F87E460F3E0FCCB6465E
:1000F0000126334200D0FB1AA246AB4633431847D1
:10010000E03700000038000000230024002500260E
:10011000103A01D378C1FBD8520700D330C100D5C3
:100120000B6070471FB51FBD10B510BD00F076FA0B
:100130001146FFF7F7FF03F045F800F08EFA03B41D
:10014000FFF7F2FF03BC00F091FA00001948804766
:1001500019480047FEE7FEE7FEE7FEE7FEE7FEE799
:10016000FEE7FEE7FEE7FEE7FEE7FEE7FEE7FEE767
:10017000FEE7FEE7FEE7FEE7FEE7FEE7FEE7FEE757
:10018000FEE7FEE7FEE7FEE7FEE7FEE7FEE7FEE747
:10019000FEE7FEE7FEE7FEE7FEE7FEE7FEE7FEE737
:1001A000FEE7FEE7FEE7000004480549054A064B66
:1001B00070470000D92A0000C500000098200020E8
:1001C0009825002098210020982100200022030972
:1001D0008B422CD3030A8B4211D300239C464EE062
:1001E00003460B433CD4002243088B4231D303091E
:1001F0008B421CD3030A8B4201D394463FE0C309D0
:100200008B4201D3CB01C01A524183098B4201D3E7
:100210008B01C01A524143098B4201D34B01C01AD2
:10022000524103098B4201D30B01C01A5241C3084A
:100230008B4201D3CB00C01A524183088B4201D3B9
:100240008B00C01A524143088B4201D34B00C01AA5
:100250005241411A00D201465241104670475DE0BA
:10026000CA0F00D04942031000D34042534000223D
:100270009C4603098B422DD3030A8B4212D3FC22E6
:10028000890112BA030A8B420CD3890192118B4265
:1002900008D3890192118B4204D389013AD092117B
:1002A00000E08909C3098B4201D3CB01C01A524136
:1002B00083098B4201D38B01C01A524143098B42FF
:1002C00001D34B01C01A524103098B4201D30B01E8
:1002D000C01A5241C3088B4201D3CB00C01A52410D
:1002E00083088B4201D38B00C01A5241D9D24308F4
:1002F0008B4201D34B00C01A5241411A00D2014631
:10030000634652415B10104601D34042002B00D59A
:100310004942704763465B1000D3404201B500205C
:10032000C046C04602BD70477047704730B50346AF
:10033000CA02400D1043164D164C0A1502D0204338
:10034000002A06DBAA1A002A12DDD040FF2A0BDCA5
:1003500030BD5205520D01D140004008AA1A07D401
:10036000D0404042FF2A01DD002030BD0028FCDDE6
:100370004A00002B01D0012000E0002010180122CB
:100380005205D042F0D8C817C043604030BD0000CD
:100390001E040000000000800346CA02400D10B594
:1003A00010430A1504D00124E4072043002A05DB8A
:1003B0000A4CA21A04D4D040FF2A00DD002010BD50
:1003C0004A00002B01D0012000E00020101801227B
:1003D0005205D042F2D8C817C04310BD1E04000019
:1003E0001F22030C02D10F22000402D0030E03D0FF
:1003F00004E00020014670470002083A030F01D1D3
:100400000001121F830F01D18000921E002801DB22
:100410004000521E120551184205C01241181046E4
:100420007047C10FC90700D0404201229207114313
:10043000D6E701218907D3E770B505464800440D8A
:10044000124B0020002C0AD0634008D09A4206DAF2
:100450006642B24203DD12054019514170BD002CC5
:1004600008D0002B09D0C90FC907002AF6DB084ABB
:10047000114370BDC90FC90770BD28460A03104358
:1004800002D00020034970BD284670BDFF07000060
:100490000000F07F0000F87F1F22030C02D10F2222
:1004A00000041CD0030E01D10002083A030F01D151
:1004B0000001121F830F01D18000921E002801DB72
:1004C0004000521ED20551180212511819229040B4
:1004D00004D3491C002801D1490849000846704747
:1004E000C10FC90700D04042012292071143D3E750
:1004F00001218907D0E710B500F088F8006810BD29
:1005000010B5044600F082F8046010BDF0B53D4B14
:1005100002460C461C400020002C63D03A4D8B4311
:1005200066D000296BDB0B0D1D05A94301252D05A8
:1005300029430124FD33E34001D392184941FF339D
:1005400081339C468B02940D0121234389074C4241
:10055000920200271B198C105D1A04D42D1B02D4A3
:100560002B466500491992185B416408F4D15C1A66
:1005700008D40125ED07EE175519744102D42A4617
:100580002346491C94185B41012292071D46E61B35
:100590008D4106D4B61A854103D42B465500344606
:1005A0007F1924195B415208802AEFD1234300D0E0
:1005B000022338460A22D04001D3012213438A0580
:1005C00010436246890A12058918002B09D00122BE
:1005D000D34002D30022401C5141002B01D14008DE
:1005E0004000F0BD0B03134307D0C90FC907F0BD8E
:1005F0000803104303D1002901DB1046F0BD0020A1
:100600002946F0BD0000F07F0000F87F00487047E9
:100610003420002000487047342000207546FFF742
:10062000F9FFAE46050069465346C008C00085463E
:1006300018B020B5FFF7B8FD60BC00274908B646E2
:100640000026C0C5C0C5C0C5C0C5C0C5C0C5C0C5E1
:10065000C0C5403D49008D46704710B50446C046B0
:10066000C0462046FFF76BFD10BD00000149182071
:10067000ABBEFEE726000200704770B58C18057807
:10068000401C6B075B0F01D10378401C2A1106D177
:100690000278401C03E00678401C0E70491C5B1E6B
:1006A000F9D12B0705D40023521E0DD40B70491C21
:1006B000FAE70378401CCB1A921C03E01D780D70FA
:1006C000491C5B1C521EF9D5A142D8D3002070BD35
:1006D00010B51448817E20221143817680210120AB
:1006E00000F06EF90021012000F056F900221146B9
:1006F000012000F041F901210022084600F02CF908
:10070000094900200870094881780422114381704A
:1007100007488178FB221140817081788170012126
:10072000017010BD0008024060600040600004409D
:100730004038044070B51F480178202211430170F1
:100740001D4C002121701D48827801252A438270AA
:10075000837808221343837043782B4343700378D4
:1007600002263343037003782B430370837B4026B8
:100770003343837328202070A1700D202073A0784C
:10078000A070A0781043A0702171A171FF20E072C9
:10079000A1720B480175152002F0ACFC09480575E3
:1007A000207828432070032020722078802108437D
:1007B000207070BD200402400050044060000440DE
:1007C000406000404061004000B5C0208078C00813
:1007D000C0001949097801431848EA2923D009DCE7
:1007E000E0390B0002F078FC0A191D21250E0E0ECF
:1007F0000E171B0EED2905D005DCEB2917D0EC29CF
:1008000000D10F4800BDF02903D0F829FAD10D48D6
:1008100000BD0D4800BD0D4800BD0D4800BD0D4890
:1008200000BD0D4800BD0D4800BD0D4800BD0D4880
:1008300000BD0D4800BD0000201C024040420F00DA
:1008400080841E000090D003006CDC020048E801A8
:1008500000366E010024F400001BB70000127A007D
:10086000808D5B0000093D00C0C62D0000220128DC
:1008700001D140220A43022801D1C0210A43074B7B
:100880001A7059784906490E5970012804D1FF2081
:10089000997801408142FBD170470000000402407A
:1008A00008B50022012800D14122012901D11223DB
:1008B0001A43022801D1C0231A43022901D130234F
:1008C0001A43104B1A705A785206520E5A70012869
:1008D00004D1FF209A7802408242FBD15878BF228F
:1008E0001040587001290BD100200090FF20693082
:1008F00003E000BF0099491C009100998142F8D99A
:1009000008BD0000000402400023002800D080231E
:10091000012902D0022903D004E01B1DDBB201E053
:100920000833DBB2012A01D19B1CDBB20148837082
:1009300070470000000C02400648817801221143F4
:10094000817000207D21090100BF401C8842FBD935
:1009500070470000000C024010B5064CC30702D0DF
:1009600093000B436370800703D59001090108438E
:10097000607010BD4038044010B5064CC30702D06B
:10098000CB011343A372800702D588011043E072A4
:1009900010BD000040380440084A002901D100235E
:1009A000D370012901D11121D170C10701D00221D9
:1009B000D170800701D52020D070704740380440A6
:1009C000034AC30700D01171800700D551717047E9
:1009D0004038044030B50B4C00252078002803D067
:1009E00000F0ECF8257030BD60780123002804D0B9
:1009F00000F00AF86570237030BD00F077F863707E
:100A0000F9E700002C07002006480B21017201784D
:100A100080221143017001780906FCD4C089024983
:100A2000C8657047005004402409002070B527486D
:100A30000F210172017880221143017001780906AB
:100A4000FCD4C0892249400088602249224D0B888D
:100A5000DA071BD1214CEA6DA24217DD8A68521CCD
:100A60008A604C6824184C600126B602B2420DDB45
:100A7000A2128A6100248C604C60CC68A24205DC22
:100A80004C69A24202DB012213430B80098B401AFE
:100A900001B21348418169602A880389D31A1BB2C5
:100AA0008380FF24723463431B1343800624045F56
:100AB0000C4E74430C4E241373431B13E3181BB2E8
:100AC000C380C91AA960028170BD000000500440B3
:100AD000900900204C05002024090020CC040000CF
:100AE0002C07002017070000E90800000648002135
:100AF0000172017880221143017001780906FCD44B
:100B0000C08902490866704700500440240900204B
:100B1000F0B5244D032028722878802108432870DE
:100B200028780006FCD4E8891F4F400038601F4930
:100B30000B88DA071CD11E4A1E4CD26DA24217DD6B
:100B40008C68641C8C604A6812184A600126B602E0
:100B5000B4420DDB92128A6100248C604C60CC6838
:100B6000A24205DC4C69A24202DB012213430B8046
:100B70008969401A0E4908600A2028722878802264
:100B80001043287028780006FCD4E889B86108640E
:100B9000094A0304D0681B1ADB111818D06000142E
:100BA0008864F0BD0050044090090020300500200A
:100BB00024090020CC0400002C07002010B51C489C
:100BC0000921017201788022114301700178090620
:100BD000FCD4C089174A40005066174B916E5943A8
:100BE0000B1316494143091359189166144B198880
:100BF000CC071BD1D26D134CA24217DD9A68521C50
:100C00009A605C682018586001246402A2420DDBDF
:100C10004012986100229A605A60DA68904205DCBE
:100C20005A69904202DB01200143198010BD000087
:100C3000005004402409002039060000C7090000C4
:100C400068050020CC040000F0B59C46059B964644
:100C5000069A120F042A0CD00125079A120F042AB3
:100C600009D00124002D08D00022224207D00026FE
:100C70000FE00025F1E70024F4E70122F5E7002C5E
:100C800004D000222A4203D0012602E00122F9E723
:100C9000002601277F07C219117062469201E40005
:100CA0002243AC0022437400224374462243202492
:100CB00022430C010D4961180A8001224A808B8071
:100CC000CB80E119069B8B64079BCB6408498B7E24
:100CD000082423438B76074B9F60C1085C5C400768
:100CE000400F824014435C54F0BD000040000020DF
:100CF000000802400050004070B53F48807E10223E
:100D00003D49104388760846807E042108433A49CD
:100D100088763A4CE0780C231843E070E07880083D
:100D20008000E070E02020710020207433492031E1
:100D300008700225A571A5791D43A5717323E3826F
:100D4000C8802F4B23832D4D5B10E035AB8308818A
:100D50006B836083EB834881FF23E371E074C87089
:100D600022750A712749087400211C2002F0CEF96F
:100D700025483421017688214176AA2181760121F6
:100D8000C17622484178BF23194041701F49203164
:100D90004A781A404A701E4A557C1D405574457861
:100DA000EF231D4045704D781D404D70557C1D4012
:100DB00055744578DF231D4045704D781D404D70BA
:100DC000557C1D4055744578FB231D4045704D787A
:100DD0001D404D70557C1D4055744578F7231D40CE
:100DE0004570487818404870507C18405074E0783E
:100DF00003210843E07070BD00080240602A0440EF
:100E0000F306000060610040403C044000030440E1
:100E10004000044001B50098816868468847009802
:100E200041686846884708BDF0B5554E7078400760
:100E30007ED5544D688803287AD1534F38880028CE
:100E400076D1524C3A465249606800F069F93A4608
:100E50005049606800F064F93A464F49606800F014
:100E60005FF93A464D49606800F05AF94C4C3A46F1
:100E70004C49A06A00F054F93A464B49A06A00F088
:100E80004FF93A464949E06D00F04AF93A46484977
:100E9000E06D00F045F96888464D022801D8012030
:100EA0006870FF21606A9131884202DC29786429E8
:100EB00001D3002169706978002909D16168FF2296
:100EC000C8319232914203D32F4A3B4900F028F9AE
:100ED0002D4A3A49606A00F023F92B4A3849606A82
:100EE00000F01EF9284A3749206C00F019F9264A0B
:100EF0003549206C00F014F9234A3449206C00F085
:100F00000FF9214A3249206C00F00AF91E4A314992
:100F1000206C00F005F91C4A2F49206C00F000F904
:100F20002F4B0020184A2D49185E00F0F9F800E018
:100F300025E02B4B0020144A2A49185E00F0F0F8F7
:100F4000114A2949206E00F0EBF80F4A2749206E1C
:100F500000F0E6F8A06E0C4A4010254900F0E0F8D9
:100F6000A06E094A4010234900F0DAF8A88800284A
:100F700001D13888A8807078FB2108407070F0BDDE
:100F8000DC0500209C0600208405002014090020B8
:100F9000CC020020E4020020FC0200201403002008
:100FA000240900202C03002044030020D403002047
:100FB000EC030020680800208C0300205C03002064
:100FC000740300203C020020540200206C02002028
:100FD000840200209C020020B4020020A403002010
:100FE000DA070020BC030020040400201C040020B9
:100FF000340400204C040020FFB581B00D46164695
:10100000FFF76EFA164F044638602846FFF768FA75
:10101000054678603046FFF763FA0646B8600498E4
:10102000FFF75EFA0146F86038461438024670C28F
:10103000C160002101744174802181747F21C174D9
:101040000849421C8A6013228A8007494A78402353
:101050001A434A7005490078087505B0F0BD0000D4
:10106000D809002040000020005000400013044038
:1010700070B5002207210D2000F09EFC2648416833
:10108000012212069143416005220021062000F052
:1010900093FC224C0125A57505220121062000F0B4
:1010A0008BFC0220A07504220021072000F084FCA4
:1010B000E57104220021032000F07EFCE57401228A
:1010C0001146032000F078FC01220421072000F0E3
:1010D00073FC012206210D2000F06EFC0422114653
:1010E000022000F069FC1020A074042205210220D7
:1010F00000F062FC2020A07404220621022000F0EF
:101100005BFC4020A07404220721022000F054FC64
:101110008020A07470BD000000B001408000044039
:10112000F0B514880B881C4219D14E880024012781
:101130001E4D012E14D0002E11D10E6986422FDBD8
:101140008F80C868401CC860A84200D3CD608D68FD
:10115000C868A84203D3CC60108818431080F0BD43
:101160000E69864213DC88880009000138438880B4
:10117000C868401CC860A84200D3CD608D68C868AC
:10118000A842ECD3CC60108818431080F0BD4A69A7
:101190008242FBDD8888000900018880CC60F0BDB8
:1011A0004A698242FBDA8C80CC60F0BDFFFFFF0F02
:1011B00030B5224A10782249040708780023002C11
:1011C00001DA002805D01278120709D4012806D0C8
:1011D00006E08888C881012008708B8000E00B70D1
:1011E000174A103210880424A04310808888401CBD
:1011F00080B28880FF25AC35A84201D9CB818B8095
:101200000E20085E4880002802DAFF30AC304880AB
:101210000223CB5E2020FF3B6D3B2D2B06D2118895
:101220002143118011880143118030BD1188814311
:1012300011801088A043108030BD00004038044069
:101240001A07002070B5114C20256088002818D09E
:10125000012816D0022814D00D480088002810D08C
:101260000C490888052803D94988491F884207DBAB
:1012700009490120C87401F0D7FE20882843208046
:1012800070BD2088A843208070BD00009C0600200F
:1012900084050020E80900208000044070B5114D4D
:1012A000114C2888002812D1A068401120600F4AF4
:1012B000616851430E4A09135043001308186060D7
:1012C0000021A1600B498880096D0A488847E96AB6
:1012D000A86A401AE96B4843A16800134018A0604F
:1012E00070BD0000E8090020B8090020210A0000B4
:1012F000DF0500003406002010B50B4800780128F7
:1013000010D10A480A4C8088A080216D2046884769
:10131000A06C002801DD0020A0640648A26CC16812
:101320008918C16010BD0000880600201409002043
:10133000E0050020E8090020F8B5384800260675C9
:10134000374D287DEF7CEE74297D364A090705D597
:10135000F721014029751188491C1180297DCB078F
:10136000314911D0400840002875304B1888401C86
:101370001880108800284BD0288BAB8BC01A13889C
:101380001B04C018086016800868294CA060206102
:101390002849884200DDA1602749A068884201DA17
:1013A000E068A060A168E1602448FEF70FFF01B289
:1013B000A1800620205E224A90420BDD091AFF31EF
:1013C000204A5F31914205D31F49204A896C9142DE
:1013D00000DDA0800420205EE0801D4B0221595ECC
:1013E0001C4A5143194A463250430818001300B2B0
:1013F000588061690022A256914200DB66616169F2
:10140000154A490050526069401C6061EF74F8BD94
:10141000288BAA8B801A0860B6E700006060004045
:1014200040260440040200200802002000020020A0
:1014300018020020B85600008C30000094CAD40274
:10144000D6080000BD020000240900209605000017
:1014500064080020240A0000EC08002001B5009870
:101460008168684688470549002048601031486017
:101470000098012201881143018008BDCC0600209C
:10148000F8B504466A4A6B4B117C10464068012946
:101490007ED0D860D968814200DDD8607D21E06BC4
:1014A000C9004843644E0113644A706850430013F6
:1014B00008187060624D206CA860A06CE860A96993
:1014C000284688475F4F2869386068697860E06B14
:1014D000B860384600F032FB5B48E168806C081861
:1014E0000003001320613A6B82186261012000033F
:1014F000A0617D23DB00C9188A4200DD6161FF2104
:1015000062692D318A4200DA6161E169814200DA63
:10151000A161A169206A814200DAA0612188606E20
:101520004900415E6069494A4143926C0913504346
:1015300000130918A160626DA06C50430013306065
:10154000434D081AA860206CE86020886861296B08
:1015500028468847A068E96A401831683D4E401A1D
:101560003060206C7060B16B304688473A4D706BCC
:101570002860E16D884200DD29602968206E814283
:1015800000DA2860606C6860A96B3348884700E027
:1015900034E020464030018B00293CD02188606E29
:1015A0004900405EE1684843001320637D20216BC1
:1015B0004001814200DD20632848216B814200DA2E
:1015C0002063A169A06B484300136062216B414313
:1015D000491343105A18A262591AE162824200DD8F
:1015E000A062A36A0022002B00DAA262814200DD21
:1015F000E062E06A002800DAE262F8BDD968814260
:1016000000DB47E70825555FD1684919D160927A18
:101610001141D9603EE7408B002804D0686B216CF3
:1016200040182063C2E7706B216C40182063BDE74F
:1016300000090020E80900207C080020180C0000A8
:10164000E40A002090080020E00500203406002075
:10165000001A00206C0A0020A80A002060F0FFFF9A
:10166000F8B504462088656801221EE0E168930011
:10167000C958A94218DB9000E168521E0F58930028
:10168000C958791A226910580090D258861A0A202F
:10169000FEF7A6FD8640009877438002C01B6E438C
:1016A00030188012A060F8BD521C8242DEDBF8BD0B
:1016B000F0B52E484078C00757D02D480188002249
:1016C0008B0701469B0F1039022B33D1294CE35E67
:1016D000002B00DA5B421BB2274C254F0826656AB7
:1016E0008E5F103F06243C5FB54206DD0A254D5F44
:1016F000AB4202DA641CCC8001E0641ECC8006237D
:10170000CB5EFF24F534A34204DD03889B089B00D5
:101710000380CA800623CB5EFF24F534E34209DA56
:1017200003889B089B005B1C0380038808242343D9
:101730000380CA8003889B0717D103881B0714D432
:101740008B895B1C1BB28B81322B04DD8A81018863
:101750001022114301800188C90606D50188890637
:1017600003D50188082211430180F0BDDC0500206B
:101770002A0700204407002024090020426801684D
:10178000891A81600269914200DA82608268C168C8
:101790008A4200DD816083688169026B5943891840
:1017A0000163026A914200DA0263026BC1698A42F4
:1017B00000DD0163416959430913C162026BD21311
:1017C00089184163426A914200DD4263426B816A3B
:1017D0008A4200DA41637047014640318A89521CCF
:1017E00092B28A81CB899A4225D300228A8104222F
:1017F000825E0168891A8160426952184261C36A37
:101800009A4200DB43614369026B934200DA426112
:1018100082694A43C2634369C169594301645118EB
:10182000CA138264416B8A4200DD8164826C816BE1
:101830008A4200DA81647047F0B5059C4E4D85639D
:101840008D637D25ED00561B4C4D4D4A4D4F05D007
:10185000F61B2AD0FF3E913E5FD150E0642B0CD0A6
:101860006E2B0AD0782B08D0002C17D0464B436142
:10187000464B83614D618A614FE0002C07D0444A9A
:101880004261444A8261444A4A618F6145E0434B68
:101890004361434B83614D618A613EE0414B43614B
:1018A000414B83614D618A6137E0642B0CD06E2B14
:1018B0000AD0782B08D0002C1AD0334B4361334B1D
:1018C00083614D618A6128E0002C07D0354BC83315
:1018D00043612D4B83614A618B611EE04B22920173
:1018E0004261294A82617D235B014B618A6114E078
:1018F0002C4B43612C4B83614D618A610DE0642B5D
:1019000020D06E2B1ED0782B1CD0002C2CD01E4B40
:1019100043611E4B83614D618A6101242403C460CD
:1019200065420561E603C661EF0307627D235B0143
:1019300043625A428262CC600D61CE610F624B629B
:101940008A62F0BD194B002C06D04361184A8261AF
:1019500092104A618F61E0E7104CC83444618361A2
:10196000144B4B618A61D8E70E4B43610E4B836188
:101970004D618A61D1E700007D170000D0070000AB
:10198000B80B00005802000088130000F82A00007D
:101990001C25000028230000DC050000E40C0000EA
:1019A000A8610000CC10000010270000581B0000A8
:1019B00070170000C409000070B501238B40D9B234
:1019C0002F4C2F4E2F4D2E4B203C403E8619041994
:1019D0004519C018130001F07FFB060414243438A5
:1019E000451302788A4302702878084328702078CB
:1019F00088432070207C88432074307C8843307476
:101A000070BD02788A4302702878084328702078D5
:101A100088432070207C88432074307C08433074D5
:101A200070BD02788A4302702878084328702078B5
:101A300008432070207C88432074307C88433074B5
:101A400070BD02780A43027070BD02788A4302704A
:101A5000287888432870207888432070207C884329
:101A6000207470BD02788A430270287888432870F9
:101A7000207888432070207C0843207470BD0000CB
:101A80006000044020030440F8B581880288284E95
:101A9000284C914204D38A1A9200A358B55804E006
:101AA00042888A189200A358B5588768BC46C26815
:101AB0006B431F13204B1B68DB1B674657433F13C9
:101AC000FB181D4F9E463B608F000097E3594788E7
:101AD000B94204D20788C9198900615802E0C91BBC
:101AE000890061581F466F43134D3F136B68DF1B1E
:101AF00051430913C9196960AA68734653439B137C
:101B00000361514389134161009A6146A150828863
:101B1000C1689200B1508188491C89B281800288D5
:101B20004388D2188A4201D800218180F8BD000084
:101B300080120020000B00208408002030B52449CA
:101B400082680B69D21A4B6853439B120B604C6935
:101B5000624392128A609F24E443A24200DA8C60BE
:101B60008A68022A01DD02228A60002B01DA002243
:101B70000A600B68CA68934200DD0A600368C268A5
:101B80000C685A431213151B04694268544324130A
:101B90002C1BC462456989686B439B12C91A83690F
:101BA0005A439212891A0163C269944200DDC262EB
:101BB000C36A026A934200DAC262426A914200DD5D
:101BC0000263026B816A8A4200DA016330BD000061
:101BD000C8080020F0B59C467D23DB00CF1A002505
:101BE00032246149614E002F1FD09F421CD1642ACC
:101BF0007AD06E2A78D0782A76D067460D22322F96
:101C000071D03C27C76002618561594A0A618C2204
:101C10004A604B61CC60C461311101624B21C90043
:101C20004162866246214161F0BD0F27642A19D0C6
:101C30006E2A17D0782A15D06246322A3FD03C222D
:101C4000C260076185614B4A0A6178224A604B6134
:101C5000CC60C4613121C94301624B21C90041629A
:101C60008662F0BD6246322A14D03C22C26007610F
:101C70008561404A0A6178224A604B61CC60C46148
:101C80003121C94301624B21C9004162866246216C
:101C90004161F0BD3C22C26007618561354A0A613D
:101CA00078224A604B61CC60C4613121C943016232
:101CB0004B21C9004162866246214161F0BD3C2250
:101CC000C260076185612B4A0A6178224A604B61D4
:101CD000CC60C4613121C94301624B21C90041621A
:101CE0008662F0BD00E02AE067460A22322F12D059
:101CF000C260056185611F4A0A6164224A604B61C6
:101D0000CC601E21C16149420162D10041628662FC
:101D100046214161E5E7C26005618561154A0A61B6
:101D200078224A604B61CC601E21C1614942016248
:101D30004B21C9004162866246214161D1E73C27BF
:101D4000C760026185610A4A0A618C224A604B6160
:101D5000CC60C4613121C94301624B21C900416299
:101D6000866246214161BCE7C8080020E0FCFFFF15
:101D7000AA050000B80B000070B50C460E4E0025F9
:101D8000356075600D4981610480A103090C4180B3
:101D9000858001202146C003FEF718FA401CB06080
:101DA00000200749074B03E082008D509D50401CE6
:101DB000A042F9D370BD000084080020891A0000F9
:101DC000000B002080120020F0B500214B4EFF27B1
:101DD000B3680137142B03D24948C088002806D0C5
:101DE000B088B8427ED17088464A90427AD9464A35
:101DF0000120D0700020B0807080444A1488A4086C
:101E0000A400A41C148014880425AC4314801488F6
:101E10001025AC43148014882025AC43148014880A
:101E2000BC43148014880825AC431480384C60618E
:101E300015884024A5431580364A1080364A108004
:101E4000364AD060364AD060364AD060364AD060D2
:101E5000364AD060364AD060364AD060364AD060C2
:101E6000364AD060364AD060364AD060364AD060B2
:101E7000364AD060364AD060364AD060364AD060A2
:101E8000364AD060364AD060364AD060364AD06092
:101E9000364AD060364AD060364AD060364AD06082
:101EA000364AD060364AD060364AD060364A10632F
:101EB000364A1063364AFF2781378D005051491C3E
:101EC000B942FADB33494860334A50601068400831
:101ED0004000106008888008800008802F48018832
:101EE000490800E009E0490001802D4801882143AC
:101EF0000180322B01D85B1CB360F0BD6808002064
:101F00001C050020B80B0000800004402A070020B8
:101F1000E80900208405002086050020CC0200206E
:101F2000E4020020FC020020140300208C030020A7
:101F30002C030020440300205C03002074030020D5
:101F40003C020020540200206C0200208402002089
:101F50009C020020B4020020A4030020BC03002047
:101F6000040400201C040020D4030020EC03002003
:101F7000640400207C04002094040020AC040020B1
:101F8000C4040020DC0400206C0A0020A80A002001
:101F9000341A0020DC060020CC060020F4060020C5
:101FA0009C06002001B5009801696846884708BD75
:101FB000F8B5FFF77DFB4B484B4C40784B4DC007C5
:101FC00026D06868401C6860E968884200D969606A
:101FD000474A4849206CFFF7A3F8454A4649206C18
:101FE000FFF79EF8464B0020414A4449185EFFF730
:101FF00097F83F4A4349E06DFFF792F83C4A42495F
:10200000E06DFFF78DF83A4A4049206EFFF788F8F7
:102010003F4908880822104308800888800880000B
:10202000401C08800888012600070023394A36032F
:10203000002849DA2E480088470745D5070743D5C9
:10204000C70641D587063FD5334F3F78FF073BD0C2
:10205000324F3F78FF0737D0314F3F78FF0733D0FB
:10206000C70724D0800722D508888007800F012861
:102070001ED0088880071AD10888400717D508881D
:10208000400614D4606A274CE75EB8420FDD26484C
:10209000022404800888402420430880288880087F
:1020A0008000401C28801088B04310806B60F8BD11
:1020B0001D480380288880088000401C28806B60B1
:1020C0001088B0431080F8BDE96868688842FAD388
:1020D000288880088000801C28806B60108830432E
:1020E0001080F8BDDC05002024090020DC0600205B
:1020F00086050020640400207C0400209404002055
:10210000DA070020AC040020C4040020DC04002016
:102110002A07002084050020300500204C050020FF
:102120006805002018070020E809002070B5C26883
:102130008168891AC2698A4202DB026A8A4200DD2A
:1021400000211E4A1E4C136863431E4C1B1361433F
:10215000091359181160436905689C001A4B1E59F0
:1021600075432E1345684D4329137118195144695D
:10217000A500446AA14200DD5C514169846A89007E
:102180005D58A54200DA5C50846941690919046907
:10219000A14204DB091B89005958516002E0890003
:1021A00059585160064BC16A59430B135168054A8F
:1021B000514309135918C16270BD0000E0080020A6
:1021C000C40900003C060000341A002030B52B4C36
:1021D00004632B4D00242C607D25ED004C1B032156
:1021E000002C1AD0AC4217D1FF24FF34C4616442E2
:1021F0000462244C446264428462642A2FD06E2AB2
:102200002DD0782A2BD02049016019218901416005
:102210000521322B2FD0816130BD19246401C461A6
:10222000644204624562194C8462642A0CD06E2AAE
:102230000AD0782A08D0164A0260FF222D32426066
:10224000322B0AD0816130BD124A02604260322BCB
:1022500001D0816130BD816130BD816130BD0A4AEC
:1022600032320260084A963A4260322B01D08161D4
:1022700030BD816130BD816130BD00002D21000085
:10228000E00800207C150000420E000018FCFFFF53
:10229000330B0000C409000001B500980178C9079C
:1022A00007D1416868468847009801220188114398
:1022B000018000988168684688470098C168684630
:1022C000884708BD10B50649002008630549086322
:1022D000054806490088888000F0B4FE10BD000063
:1022E0006C0A0020A80A0020E8090020E40A002067
:1022F000F0B5418805220425022701260C240B0095
:1023000000F0EAFE06040910202B3B080178C907FB
:1023100000D04680F0BD01888A07FBD54780B943CD
:102320000180F0BD0188CB0601D54280F0BD0907D0
:10233000890F012903D00229F8D14580F0BD03217E
:102340004180F0BD0188A1430180CB0601D54280C8
:10235000F0BD8906FCD54580F0BD0188A143018010
:10236000CB0601D54280F0BD4A06FCD5468020222E
:102370009143402291430180F0BD0188A143B943BC
:102380000180F0BD10B58168C16043680268D21A4F
:102390008260036A9A4200DD83608368426A9342E6
:1023A00000DA826083684269591A0D4C51436160BA
:1023B00082695A432260891802D44912016303E0FA
:1023C0004942491249420163026B816A8A4200DD37
:1023D0000163026BC16A8A4200DA016310BD00002A
:1023E000740800201049088F401C00B20887082894
:1023F00001DB002008873620085E002802DA38203A
:10240000085E03E0088F0721081A00B2074989789F
:10241000074A40000907105C090F014310466C3859
:102420000068017070470000880500200003044028
:1024300050080020F8B5B14FB14C7878B14D800705
:1024400036D56078012806D1AF486968814202DA42
:10245000E089401CE0810E20205EAF218900884287
:1024600001DD00206070A94883220078A94E810711
:10247000A74800685043800900292DDB61780129B5
:102480002AD070609E485030F0601830306130467D
:10249000FFF7E6F8B06828609D49AF224968D2008E
:1024A000914201DB5A3028607878FD21084078702D
:1024B000994E2868B04200D92E60984A1178C80712
:1024C0007ED00020490849001170954F398821823B
:1024D000218194490B5619E0706089482030F060E2
:1024E000183030618B48FFF7BBF8D3E74100795EC5
:1024F000A2698A18A2611022A25E914200DD2182A7
:102500000822A25E914200DA2181401C9842EDDB54
:102510001021615EA069401A0821615E401AC01056
:1025200000B260810027A76127822781002801DA95
:10253000A88860810A20205E6860FF2019306861E9
:102540003720A8616F48822140300180296D4038D2
:102550008847286B002805DB37210902484300140F
:10256000A88605E0DB21C943484340428012A88683
:102570003420285EA96A884200DB084600B2A8869B
:10258000E96A884200DC084601B2A986A868FA28F0
:1025900003DD2279521C227101E0677127712279D3
:1025A000082A06D3002904DD0421A9866179491C83
:1025B000617157494A685849A2398A4226DA00E0CF
:1025C0009AE0FF232D33984209D83421695E00290F
:1025D00005DDA179491CA1710221A98600E0A7713E
:1025E0000146FF312D31994208D23421695E00291C
:1025F00004DA2178491C2170AF8600E02770217829
:10260000002903D00321C943A9862770002805DBD0
:102610003421695E002901DA8910A986002805DCC9
:102620003421695E002901DD4910A9860C21615E13
:102630003D4B891A994202DD0B23A37010E03B4BFE
:10264000994202DD0823A3700AE0394B994202DD6A
:102650000423A37004E03423EB5E002B00DDA7709D
:10266000A3789C46002B07D0002805DA2723DB43FC
:10267000AB8663465B1EA3706B68B34205D22E68BF
:102680009B1B4B26F600B34202DD3323DB43AB86B4
:102690003423EB5E0126002B01DDEE8606E0002BE5
:1026A00003DA0023DB43EB8600E0EF860346463384
:1026B0008C2B06D8E3785B1CDBB2E370052B00D9CA
:1026C000E6711C4B194EDB6B323EB3420ADBFF2333
:1026D0009133984206DAD84204DD1420C14201DD6C
:1026E000142901DBE771E770E079012800D1AF869A
:1026F0003420285EE061A281F8BD0000DC050020E6
:10270000D0070020880500201C0C00009006002047
:1027100014090020540A0020EA0D00008E06002053
:10272000EC08002018020020FC080000DC05000076
:102730004C040000E80900207047000010B50A486A
:102740007D21C9000068FDF741FD0849401E88420F
:1027500009D8074C60610321081F00F0D7FC002056
:10276000A0610720206110BDE8080020FFFFFF00E6
:1027700000E000E070B52C48016901221204114309
:1027800001612A4A5078401CC0B25070284CE18F39
:10279000491CE187274B01265978314302252943FB
:1027A00004252943597024490988CB1FF93B08D1D6
:1027B0002249234B096E994203DD22490B885B1C99
:1027C0000B800025022813D3E08E002810D055700E
:1027D000FFF708FEA08F401C01B2A1873420205EC5
:1027E000002800DA4042814202DBA586A587E58603
:1027F0000F48E18F40300088814204D312480178AD
:1028000031430170E587FEF70FFB1048408803282D
:1028100009D10F480078C00705D00E4908783C2838
:1028200001D8401C087070BD00E000E018020020D4
:1028300088050020DC0500206C0800202409002009
:10284000ED0200006A0800208E0600209C06002091
:10285000F4060020680800200EB500F019F9FFF713
:102860006DFFFEF705FC0B490B4813220023009275
:10287000029101901A4619460E20FEF7E5F9FDF780
:1028800059FFFDF725FF00F077F900F0A3F9FEF7F7
:1028900033FA0EBD14130440C509002070B52A4C4C
:1028A00001206288254629493035130000F014FCC8
:1028B00006041422353A4613234D25482035A860D6
:1028C0006168284688472088297840084000C90761
:1028D000C90F0843208070BDC8701B48A168303004
:1028E00088472088022188432978C907890F08432F
:1028F000208070BD28684008400028601248E168C8
:102900004030884720880C2188430F49403109789E
:102910008907090F0843208070BD0B482169583092
:10292000884770BDC874084861696C30884706489C
:102930005830018849084900018070BD0248A169EA
:102940000838884770BD00009C06002080000440C5
:1029500055290000F8B53A4800210174322202815D
:1029600006238372E122D201C260364802889208AF
:102970009200921C028002880424A24302800288F2
:102980001024A243028002882024A24302800288ED
:10299000E400A243028002880824A24302802A485D
:1029A00002240288A243028028480180284801802E
:1029B000284801802848018028480380294C28485D
:1029C00060669E0166805520606327480661192075
:1029D0004001E065404220662448E06123485A38BF
:1029E000206201200003A0612148A06361652046A8
:1029F00040300183012545831E48A066E1607D27A4
:102A00003F01E6233A461C491C480095FEF714FF97
:102A10003223E62239461A480095FFF7DBF83223C5
:102A2000E62239461048FFF7D1FB31461548FFF73B
:102A3000A3F91548057015486188C181F8BD0000EB
:102A4000000900202A070020900600203005002001
:102A50004C0500208405002086050020540A002033
:102A600088340000E8090020001A00202C10000023
:102A7000F306000081140000A80A00206C0A002060
:102A800090080020E40A002088060020200600208C
:102A900010B501210846FDF703FF00210120FDF7D5
:102AA000E5FE012211461046FDF72EFFFDF744FF1B
:102AB000042000F0C7FC054800E000BF01780906CB
:102AC000FBD504490248086010BD0000000C02401C
:102AD0000090D003E808002010B514481A210172B4
:102AE0002B2141723C2181724D21C172104900207D
:102AF0004860FDF769FE0F4908600C4980202031CD
:102B0000487100200C49C04308600C4908600D4919
:102B10000B48086048608860C86008614861886147
:102B2000C8610949AC20487010BD00000004024093
:102B300000B00140E808002080E200E000E100E091
:102B4000C0C0C0C000E400E00010024008B5074863
:102B5000017D009100210175054A1175054A117525
:102B6000017C80221143017408BD0000402604400E
:102B7000606000406061004010B51148817E4022D5
:102B8000114381760F48017C4906490E01740321E7
:102B90008174102101740C2141750B4901240C75BD
:102BA0000A4A002111750921C17403211D2000F07A
:102BB000ADFA0748417921434171FFF7C7FF10BDC6
:102BC0000008024040260440606100406060004010
:102BD00020030440F8B52A4800780421284A084315
:102BE0001070284882880C252A438280254A222397
:102BF000203A9382244B93836724244B64029C8263
:102C0000234F3E7C0E433E740726D681FF26233693
:102C1000D682204ED683DC821F4AD47D20263443C0
:102C2000D4751E4AD4790C43D4711C4E2036F479E5
:102C3000FB221440F4711A4EF47D1440F475C288DE
:102C400005242243C28000229A82DA8203890B4340
:102C50000381838A8B43838243890B434381418869
:102C6000294341800F48027502760D2000F042FA98
:102C70000E2000F03FFA0C48012101750176F8BDE5
:102C800020040240201104409780000000130440FB
:102C900060040440974000006008044000030440C2
:102CA000400004402060004020610040F8B53E48EC
:102CB0004078C00777D03D4F3D49B869496B4843DC
:102CC0000214F86948430413386A4843001300901B
:102CD000B86D384E48430014B06037485043FDF794
:102CE000A8FB00F091FAFDF757FB0546F020604382
:102CF000FDF79FFB00F088FAFDF74EFB04460098B5
:102D0000F0214843FDF795FB00F07EFAFDF744FB08
:102D100001462A4AB0685043294A000B1061294AEB
:102D20005288032A20D1FF23BA6A04339A421BDD5A
:102D30002A097A62BC62F96223497368234D4B43C6
:102D40006843181800131E490A3070606243900AE5
:102D500048611E4A3168D23A51431B4AD23250432D
:102D600008180013306019E02A097A62BC62F9621F
:102D700015497368154D4B436843181810490013E3
:102D800070606243900A4861104A3168D23A5143F8
:102D90000D4AD23250430818001330607068002882
:102DA00001DA00207060F8BDDC0500202409002055
:102DB000E80900201409002061A00D00BCC9010031
:102DC0002C0700209C0600200D050000F30A0000DF
:102DD00010B5FFF76BFFFFF72DFB00F057F800F081
:102DE0001FF810BD10B50D480168C3680A464A4374
:102DF0001213D218C2604268036952439211D2186A
:102E0000026182684469134653439B111B19436155
:102E10005143426D09138918416510BD24090020F2
:102E200070B514484078C0071ED0134D134CE87994
:102E3000C006C00F2080216920468847E2881048DC
:102E40000221012A11D002888A430280E879800792
:102E5000C10F0C48018001698847E8788007C10FDD
:102E6000094801800169884770BD02880A430280D1
:102E7000ECE70000DC050020A0000440080500206D
:102E800090060020F40400201C050020F0B55D48E9
:102E9000002241885C4F022401235C48002917D09E
:102EA000012915D0022913D0594D6E780546AD88F9
:102EB0006D1CADB203290FD0042901D005290AD118
:102EC0000221B97153490988CC0724D0437065E0C9
:102ED000BC75BB758270F0BDBB714F494F4B4968E3
:102EE000CB18C72B10D8F107F5D08580FF21F5311D
:102EF0008D4201D2BC71F0BD7D21C9008D4201D24D
:102F0000BC75F0BD8280F0BD4548814201DDBC71D9
:102F1000F0BDBC75F0BD8C0702D5022141703DE0CB
:102F20004C0702D50321417038E00C0702D504217B
:102F3000417033E0CC0602D5052141702EE08C06AD
:102F400002D50621417029E04C0602D507214170C7
:102F500024E0CC0502D5082141701FE08C0502D584
:102F6000092141701AE04C0502D50A21417015E093
:102F70000C0502D50B21417010E0CC0402D50C21C8
:102F800041700BE08C0402D50D21417006E049042C
:102F900002D50E21417001E00F214170F107B9D037
:102FA00085808178002907D0012909D0022910D015
:102FB000032920D08270F0BD027082808370F0BD42
:102FC000BB71FF21F5318D42F9D3828002218170DE
:102FD000F0BDBB75FF21F5318D42F9D382800178B8
:102FE000491CC9B201704278914202D30321817019
:102FF000F0BD8370F0BDBB750A498D42FAD3828063
:103000008270F0BD9C06002080000440480700202C
:10301000DC05002084050020140900208DF9FFFF45
:103020003A070000701700000449FB20C8710448EB
:103030004178C3221140417070470000602A04406B
:10304000000304400149A120C8717047602A044070
:1030500070B50F4CA06AFDF7E4F90722D243FDF7E3
:10306000EBF9FDF763F90546606AFDF7DAF901222D
:10307000D243FDF7E1F9FDF759F9014605482B4622
:103080008268006852104010FDF7B6FF70BD000066
:1030900024090020900900200149AC2048707047A5
:1030A000001002400A494978CA07816805D0426881
:1030B000521C42608A4200D9416042688A4206D36B
:1030C000044A0021516001680122114301607047E8
:1030D000DC050020DC06002030B47446641E257830
:1030E000641CAB4200D21D46635D5B00E31830BC3C
:1030F00018470000002805DBC106C90E01208840E2
:10310000014908607047000080E200E08307FF2269
:10311000DB0E9A408907090E9940002808DB8308D6
:1031200009489B001818036893430B4303607047DA
:103130000007000F0838830804489B001818C3696B
:1031400093430B43C361704700E400E000ED00E0EF
:1031500070B583890225018842890124012B05D09D
:10316000022B09D091420DD204810CE0914201D989
:10317000048108E0058106E0914201D1048102E06A
:10318000058100E0058106890025C3894188828880
:10319000012E08D0002901D0491E41809A420ED24A
:1031A000521C828070BD002A01D0521E828099423A
:1031B00002D2491C418070BD4580C58070BD8580AC
:1031C000C48070BDFFF748FB0C4E0D4D0D4C002721
:1031D000F1690A488847FFF761FBFFF7F9FD687856
:1031E000C10702D02178491C217021780229EFD330
:1031F0004008400068702770EAE700009C06002045
:10320000DC05002014020020F8B506460C46FDF748
:103210007DF9051E0F4600D00120014349000B48EF
:103220004908411AC90F0DD0002E01D0012100E03C
:1032300000210C4361004908401AC00F02D101204F
:10324000FDF75EF928463946F8BD00000000F07F22
:10325000F8B56448C178644FB9700179F970634971
:1032600000260E740671FDF7EDFFFDF7A1FFFDF7D7
:103270004FFCFDF7DBFBFDF7ADFBFFF7B3FD5D4852
:103280005B4941615C4981615D485C4941615D49DF
:1032900081615D4D594A7D21E86B1E3209015B4B0E
:1032A0005B4C904220DD586888421DDB59481E2245
:1032B000406850430213084610183862952189006F
:1032C0004843554AB969514340180013B8615860E2
:1032D0007D210901884201DA084658604F48596843
:1032E000814210DD58600EE0206C4D4A80030013CF
:1032F00080185860884200DD5960AF20596880000E
:10330000814200DA586047484088032844D1A06CC5
:10331000E8632068286460686864A068A864606ADC
:10332000E864E06A2865FDF7B9FFFDF7E5FFFF21D6
:103330001922A06A04319201884219DD35482F49CB
:1033400040680A39884206DA4000C0108018E865F3
:10335000404228660FE03049E86D643988420ADA55
:103360002988002907D10A30E8654042286602E032
:10337000EA652D4828662D48E86540422866A96E12
:10338000214888471749A88C203908831548298D7A
:10339000C0304183A98D81832888401C80B2288059
:1033A000698888420CD32E80E068A0612069E061C2
:1033B00060692062606DA065E66026616661666591
:1033C000F869401CF861322802DBFE61FFF740FE1D
:1033D000B978DF2001400348C170C670F9780171E7
:1033E000F8BD0000802A0440180200206060004000
:1033F0004C1D00006C0A0020581B0000E605000070
:10340000A80A0020CE090000E809002000090020D9
:103410002409002014090020AC0D0000340800002D
:10342000F6F0FFFF9C060020C0F9FFFF70170000B8
:1034300010B5FFF731FE02480168491C016010BD5C
:103440001002002000220E49002800D10A71012834
:1034500001D110230B714023022801D1CA710B71D5
:103460000122032801D1CA710B71042805D1054836
:10347000027000BF00BF00BF00BF087970470000A6
:1034800000040240000C0240000043008600C90016
:103490000C014F019101D401170259029B02DD0278
:1034A0001F036103A203E30324046504A504E504E8
:1034B00025056405A305E1051F065D069A06D706E6
:1034C00014074F078B07C60700083A087308AC08B3
:1034D000E4081B0952098809BD09F209260A5A0A9B
:1034E0008D0ABF0AF00A210B500B7F0BAE0BDB0BD2
:1034F000080C330C5E0C880CB20CDA0C010D280D94
:103500004E0D720D960DB90DDB0DFC0D1C0E3B0E14
:103510005A0E770E930EAE0EC80EE10EF90E110F75
:10352000270F3C0F500F630F740F850F950FA40FDB
:10353000B10FBE0FC90FD40FDD0FE50FEC0FF20F67
:10354000F70FFB0FFE0FFF0F0010FF0FFE0FFB0F1B
:10355000F70FF20FEC0FE50FDD0FD40FC90FBE0F01
:10356000B10FA40F950F850F740F630F500F3C0F11
:10357000270F110FF90EE10EC80EAE0E930E770E47
:103580005A0E3B0E1C0EFC0DDB0DB90D960D720D87
:103590004E0D280D010DDA0CB20C880C5E0C330CAC
:1035A000080CDB0BAE0B7F0B500B210BF00ABF0A94
:1035B0008D0A5A0A260AF209BD09880952091B090F
:1035C000E408AC0873083A080008C6078B074F07E1
:1035D0001407D7069A065D061F06E105A3056405D4
:1035E0002505E504A50465042404E303A20361039F
:1035F0001F03DD029B0259021702D40191014F0102
:103600000C01C900860043000000BDFF7AFF37FFB0
:10361000F4FEB1FE6FFE2CFEE9FDA7FD65FD23FD66
:10362000E1FC9FFC5EFC1DFCDCFB9BFB5BFB1BFBD6
:10363000DBFA9CFA5DFA1FFAE1F9A3F966F929F9B8
:10364000ECF8B1F875F83AF800F8C6F78DF754F7CA
:103650001CF7E5F6AEF678F643F60EF6DAF5A6F5C3
:1036600073F541F510F5DFF4B0F481F452F425F46C
:10367000F8F3CDF3A2F378F34EF326F3FFF2D8F28A
:10368000B2F28EF26AF247F225F204F2E4F1C5F1E9
:10369000A6F189F16DF152F138F11FF107F1EFF068
:1036A000D9F0C4F0B0F09DF08CF07BF06BF05CF0E2
:1036B0004FF042F037F02CF023F01BF014F00EF036
:1036C00009F005F002F001F000F001F002F005F061
:1036D00009F00EF014F01BF023F02CF037F042F05C
:1036E0004FF05CF06BF07BF08CF09DF0B0F0C4F02C
:1036F000D9F0EFF007F11FF138F152F16DF189F1D6
:10370000A6F1C5F1E4F104F225F247F26AF28EF275
:10371000B2F2D8F2FFF226F34EF378F3A2F3CDF330
:10372000F8F325F452F481F4B0F4DFF410F541F528
:1037300073F5A6F5DAF50EF643F678F6AEF6E5F68D
:103740001CF754F78DF7C6F700F83AF875F8B1F89A
:10375000ECF829F966F9A3F9E1F91FFA5DFA9CFA88
:10376000DBFA1BFB5BFB9BFBDCFB1DFC5EFC9FFC9D
:10377000E1FC23FD65FDA7FDE9FD2CFE6FFEB1FE1A
:10378000F4FE37FF7AFFBDFF7273766431300000BC
:1037900072737664313100007273766431320000E6
:1037A00072737664313300007273766431340000D2
:1037B00072737664313500007273766436000000EF
:1037C000727376643700000072737664380000000C
:1037D0007273766439000000617578506F77657296
:1037E0005F446E5F4F4B0000764275735F446E5FBF
:1037F0004F4B000052504D5F55705F4F4B00000023
:1038000074656D705F55705F4F4B00006175785047
:103810006F7765725F55705F4F4B0000764275732E
:103820005F55705F4F4B000041434F55545F444319
:10383000494D0000494E4455435F4F43500000003E
:1038400041434F55545F5343500000004155585F6A
:10385000504F5745525F4F4C500000005642555351
:103860005F4F4C500000000041434F55545F4F4C98
:10387000500000004F4C50004F5450004155585FCD
:10388000504F5745525F4F56500000005642555317
:103890005F4F56500000000041434F55545F4F5654
:1038A0005000000052504D5F4F564552000000003E
:1038B00052504D5F4C4F5700727376640000000009
:1038C00053797374656D5F496E69745F4661696CA5
:1038D00000000000567265665F4572726F720000EC
:1038E0000039000000020020EC0600007A0600000B
:1038F000A83B0000EC080020AC1C00000801000000
:10390000011802230A1A010241721E2387091A6B49
:1039100004691872141AA314291C6918695C1ADC4A
:10392000141AC00472026388132350071A330469FF
:103930001863B80B1A17148BFB061872D21AA51449
:103940001A89045A086063409C234E0C1A3A046991
:103950001863384A1A6214291C69186328231A8AC2
:10396000140A1976185A04185B803808220E1A199E
:1039700004691863401F69185A10184A2C0711234C
:10398000FC031AE804722063DC051A08D11A1C042F
:10399000724072373250428C4A024163D00723EAA8
:1039A0000D1ABD046949691823DF08330B094A045D
:1039B00030826419182ABB2419084172C82388046C
:1039C0001ACC0459A779301A4C8C1AED04E9181A4C
:1039D000CF1039187B4001141AC8545A785829C19D
:1039E00069181A38705A889859471172D21A87A4E0
:1039F0001AA3045A021A691829301A6C042993412F
:103A00005AF4394B430EF469672ABC8459D81A44D6
:103A1000045A1048691829D81A44041A201869143D
:103A200029B829D80110120212C80B3451311433AD
:103A3000C81019044B380F0809421CC11A18D73294
:103A40003732051ADC053624FAFFFFC84538FFFF78
:103A5000FF19FB29EE221352AA1B5008F37163854C
:103A6000230316DA0C2394112AA080311A90684B94
:103A700070FE544B9AE9084B44FD08E1051A9A017F
:103A8000D9174BBC4DA84123FF7F270180FFFFCCF6
:103A90004C2734B3FFFF84030B127CFC5421091222
:103AA00054633927235D141BA53004221F23992258
:103AB0004B150E1C1AF10CC129288132C8293481FA
:103AC0001AE87C29EC1AB1442948411AC5401A2940
:103AD0004C2954814BC91D14296483D2027CE30113
:103AE000710C0122238C381A5C041A34041A7404F1
:103AF0001A98041A68041A40041A28041A78041A36
:103B0000A4041A7C041A4C041AC0041AB0041AD46F
:103B1000041AB8041A1C0423E8371AF4041A0C0C0B
:103B20001AD80811291C19081AC0041AC8041AD076
:103B3000041A88041A90041A98041AA0041AA804F3
:103B40002AB02C021201C50203044023FF0323FE06
:103B50000723CB0C23301323FC1723EA09236F0A16
:103B600023220B1AA7041A861C630B0D4BCA1028BC
:103B70001B63142C4A15301119201A590429281ACC
:103B8000B2045ADF3012101290128012C01240128A
:103B9000601220A2300911980148633D1B727832EF
:083BA000321AA4C41AE8E8C1BE
:04000005000000C532
:00000001FF
